1000000000120181218143830D20181218_20821_PGTOBLTO_GEPD.REM                           
30000000002000000000201812180220000000B79531173816004626329999013053890000000000000986000000002394000001010760000001811230kJx8s0001030538911000000001                           S000M000                                                                                                                                                                                                                                                                                                                                                                                                                                                                                                                              00000000000000000         0000   0000305380000000000000000000000000000000000000000000000000000000000000000000000152            00000000000000Ingenico                 00000000000000                           000000000026000000000000    00000000000000000000000000000000000000000000000000000000000000000000000000000
30000000003000000000201812180220000000B8238917482200462632999901305389000000000000098600000001197000000101076000000181123pdrWdE0001030538911000000001                           S000M000                                                                                                                                                                                                                                                                                                                                                                                                                                                                                                                              00000000000000000         0000   0000305380000000000000000000000000000000000000000000000000000000000000000000000152            00000000000000Ingenico                 00000000000000                           000000000026000000000000    00000000000000000000000000000000000000000000000000000000000000000000000000000
30000000004000000000201812180220000000B0776607320300462632999901305389000000000000098600000000239400000101076000000181126yzg35X0001030538911000000001                           S000M000                                                                                                                                                                                                                                                                                                                                                                                                                                                                                                                              00000000000000000         0000   0000305380000000000000000000000000000000000000000000000000000000000000000000000152            00000000000000Ingenico                 00000000000000                           000000000026000000000000    00000000000000000000000000000000000000000000000000000000000000000000000000000
30000000005000000000201812180220000000B9607507291500462632999901305389000000000000098600000000478800000101076000000181126cAqo9o0001030538911000000001                           S000M000                                                                                                                                                                                                                                                                                                                                                                                                                                                                                                                              00000000000000000         0000   0000305380000000000000000000000000000000000000000000000000000000000000000000000152            00000000000000Ingenico                 00000000000000                           000000000026000000000000    00000000000000000000000000000000000000000000000000000000000000000000000000000
30000000006000000000201812180220000000B4173506503900462632999901305389000000000000098600000000478800000101076000000181126z7L4e10001030538911000000001                           S000M000                                                                                                                                                                                                                                                                                                                                                                                                                                                                                                                              00000000000000000         0000   0000305380000000000000000000000000000000000000000000000000000000000000000000000152            00000000000000Ingenico                 00000000000000                           000000000026000000000000    00000000000000000000000000000000000000000000000000000000000000000000000000000
30000000007000000000201812180220000000B8447408070000462632999901305389000000000000098600000000478800000101076000000181126tDTWNV0001030538911000000001                           S000M000                                                                                                                                                                                                                                                                                                                                                                                                                                                                                                                              00000000000000000         0000   0000305380000000000000000000000000000000000000000000000000000000000000000000000152            00000000000000Ingenico                 00000000000000                           000000000026000000000000    00000000000000000000000000000000000000000000000000000000000000000000000000000
30000000008000000000201812180220000000B6272306570300462632999901305389000000000000098600000000239400000101076000000181126vZCGsL0001030538911000000001                           S000M000                                                                                                                                                                                                                                                                                                                                                                                                                                                                                                                              00000000000000000         0000   0000305380000000000000000000000000000000000000000000000000000000000000000000000152            00000000000000Ingenico                 00000000000000                           000000000026000000000000    00000000000000000000000000000000000000000000000000000000000000000000000000000
30000000009000000000201812180220000000B12756065729004626329999013053890000000000000986000000002872800001010760000001811278shcrn0001030538911000000001                           S000M000                                                                                                                                                                                                                                                                                                                                                                                                                                                                                                                              00000000000000000         0000   0000305380000000000000000000000000000000000000000000000000000000000000000000000152            00000000000000Ingenico                 00000000000000                           000000000026000000000000    00000000000000000000000000000000000000000000000000000000000000000000000000000
30000000010000000000201812180220000000B1656506180600462632999901305389000000000000098600000000239400000101076000000181127iJzVuO0001030538911000000001                           S000M000                                                                                                                                                                                                                                                                                                                                                                                                                                                                                                                              00000000000000000         0000   0000305380000000000000000000000000000000000000000000000000000000000000000000000152            00000000000000Ingenico                 00000000000000                           000000000026000000000000    00000000000000000000000000000000000000000000000000000000000000000000000000000
30000000011000000000201812180220000000B4485806240600462632999901305389000000000000098600000000239400000101076000000181127THQ5SD0001030538911000000001                           S000M000                                                                                                                                                                                                                                                                                                                                                                                                                                                                                                                              00000000000000000         0000   0000305380000000000000000000000000000000000000000000000000000000000000000000000152            00000000000000Ingenico                 00000000000000                           000000000026000000000000    00000000000000000000000000000000000000000000000000000000000000000000000000000
30000000012000000000201812180220000000B92614125030004626329999013053890000000000000986000000004788000001010760000001811277F9Yhc0001030538911000000001                           S000M000                                                                                                                                                                                                                                                                                                                                                                                                                                                                                                                              00000000000000000         0000   0000305380000000000000000000000000000000000000000000000000000000000000000000000152            00000000000000Ingenico                 00000000000000                           000000000026000000000000    00000000000000000000000000000000000000000000000000000000000000000000000000000
31000000013201812181438300000000130000000045964800D20181218_20821_PGTOBLTO_GEPD.REM                           